:1000000050C000006DC000006BC0000069C000005F
:1000100067C0000065C0000063C0000061C0000050
:100020005FC000005DC000005BC0000059C0000060
:1000300057C0000055C0000053C0000051C0000070
:1000400095C200004DC000000C94D60D49C00000C0
:1000500047C0000045C0000043C0000041C0000090
:100060003FC000003DC000003BC0000039C00000A0
:1000700037C0000035C0000033C0000031C00000B0
:100080002FC000002DC000002BC00000D4064C077C
:10009000C4073C08BB083309AB09230A9B0A1A0BA7
:1000A000990B11241FBECFEFD0E1DEBFCDBF12E010
:1000B000A0E0B1E0E8EAF2E200E00BBF02C0079086
:1000C0000D92AA32B107D9F722E0AAE2B2E001C04C
:1000D0001D92AE3DB207E1F70E94E70C0C9452115D
:1000E0008FCF81B38F7081BB089580B38071909161
:1000F0002C02911111C0882379F02FEF8DEE92E040
:10010000215080409040E1F700C0000081E08093E2
:100110002C0280E090E00895913081F4811111C0AB
:1001200010922C022FEF86E791E021508040904002
:10013000E1F700C0000081E090E0089580E090E0E9
:10014000089580E090E0089580B3807290912B0232
:10015000911111C0882379F02FEF8DEE92E021509C
:1001600080409040E1F700C0000081E080932B02C6
:1001700080E090E00895913081F4811111C01092D7
:100180002B022FEF86E791E0215080409040E1F76D
:1001900000C0000081E090E0089580E090E00895C4
:1001A00080E090E0089580B3807490912A029111CC
:1001B00011C0882379F02FEF8DEE92E0215080401E
:1001C0009040E1F700C0000081E080932A0280E0C7
:1001D00090E00895913081F4811111C010922A02AB
:1001E0002FEF86E791E0215080409040E1F700C07A
:1001F000000081E090E0089580E090E0089580E0C4
:1002000090E0089580917002909171020895CF93CB
:10021000DF93CDB7DEB72A970FB6F894DEBF0FBED7
:10022000CDBF8AE0E2E1F1E0DE01119601900D928E
:100230008A95E1F7E7DFAC0180912D02813061F111
:1002400038F0823009F456C0833009F483C0B1C05D
:1002500080E888BB9A01ADECBCEC0E94540E9695E8
:10026000879596958795969587959C01220F331FC4
:10027000880F991F880F991F880F991F820F931F4E
:100280009A01281B390BE1E0F0E0EC0FFD1FE20FB3
:10029000F31F808185BB8DC080E488BB9A01ADECE3
:1002A000BCEC0E94540EAC01569547955695479567
:1002B000569547959A010E94540E96958795969566
:1002C0008795969587959C01220F331F880F991F5C
:1002D000880F991F880F991F820F931F9A01281B5F
:1002E000390BE1E0F0E0EC0FFD1FE20FF31F80811E
:1002F00085BB5FC080E288BB9A013695279536950D
:100300002795ABE7B4E10E94540EAC015695479592
:100310009A01ADECBCEC0E94540E9695879596958B
:100320008795969587959C01220F331F880F991FFB
:10033000880F991F880F991F820F931F9A01281BFE
:10034000390BE1E0F0E0EC0FFD1FE20FF31F8081BD
:1003500085BB2FC080E188BB9A01369527953695DD
:10036000279536952795A5ECB0E20E94540EAC0176
:10037000529542954F7045275F7045279A01ABEA29
:10038000BAEA0E94540E96958795969587959C019A
:10039000220F331F820F931F880F991F9A01281B6A
:1003A000390BE1E0F0E0EC0FFD1FE20FF31F80815D
:1003B00085BB80912D028F5F837080932D022A96DA
:1003C0000FB6F894DEBF0FBECDBFDF91CF91089579
:1003D0009FEF94BB87B3806F87BB95BB08958093D5
:1003E0007000089584EA80937400809174008823DB
:1003F000E4F708958093730084E8809374008091FB
:1004000074008823E4F7089584E9809374000895C4
:10041000CF93DF93D82FC62FE5DF8D2FEBDF8C2F07
:10042000E9DFF2DFDF91CF9108951F93CF93DF9340
:1004300000D000D0CDB7DEB7282F207F30E1839FDA
:10044000C0011124922F9D60998329602A83982FDF
:100450009D609B8389608C8310E00AC0E1E0F0E03E
:10046000EC0FFD1FE10FF11D60818EE4D1DF1F5FF6
:100470001430A0F30F900F900F900F90DF91CF9159
:100480001F9108951F93CF93DF9300D000D0CDB775
:10049000DEB7282F207F30E1839FC0011124922FE7
:1004A0009C60998328602A83982F9C609B83886036
:1004B0008C8310E00AC0E1E0F0E0EC0FFD1FE10FDB
:1004C000F11D60818EE4A4DF1F5F1430A0F30F9054
:1004D0000F900F900F90DF91CF911F91089580E1C1
:1004E00097E27DDF2FEF80E792E02150804090403F
:1004F000E1F700C0000083E3C5DF82E3C3DF88E2E9
:10050000C1DF8CE0BFDF86E0BDDF81E0BBDF8FE3D2
:100510009CE90197F1F700C0000008950F931F9325
:10052000CF938C01C0E002C080DFCF5FF801EC0FF9
:10053000F11D80818111F8CFCF911F910F91089506
:100540006F70817090E4899F600D1124862F805810
:1005500099CF0895CF93DF93EA01F2DFCE01DEDF7A
:10056000DF91CF9108958FEF8ABB08951F920F926C
:100570000FB60F9211240BB60F922F933F934F9308
:100580005F936F937F938F939F93AF93BF93EF93FB
:10059000FF9312BE8091580290915902A0915A0285
:1005A000B0915B020196A11DB11D809358029093FA
:1005B0005902A0935A02B0935B02209146023091F7
:1005C00047022F5F3F4F309347022093460220910E
:1005D0004402309145022F5F3F4F309345022093F4
:1005E000440220914202309143022F5F3F4F3093EB
:1005F000430220934202883E9340A105B10508F4CE
:1006000068C0109258021092590210925A02109229
:100610005B028091540290915502A0915602B091D4
:1006200057020196A11DB11D80935402909355026B
:10063000A0935602B09357028091400290914102DC
:10064000892B99F48091500290915102A09152020D
:10065000B09153020196A11DB11D80935002909359
:100660005102A0935202B093530280913E029091A6
:100670003F02892B99F480914C0290914D02A091F8
:100680004E02B0914F020196A11DB11D80934C0204
:1006900090934D02A0934E02B0934F0280913C0282
:1006A00090913D02892B99F48091480290914902E2
:1006B000A0914A02B0914B020196A11DB11D8093F9
:1006C000480290934902A0934A02B0934B020E94C1
:1006D000C00D8091580290915902A0915A02B09198
:1006E0005B0283709927AA27BB27892B8A2B8B2B28
:1006F00009F48DDDFF91EF91BF91AF919F918F91A3
:100700007F916F915F914F913F912F910F900BBE11
:100710000F900FBE0F901F90189586E082BF83B791
:10072000846083BF87B7816087BF7894089582B162
:10073000886382B9ABE8B0E08C9181608C93EAE881
:10074000F0E08081886080838C9188608C938081C8
:100750008360808310928300109282008FEF8ABBA7
:1007600081E080936100089583B18B7F83B983B169
:10077000816083B982ED90E0909383008093820042
:10078000089583B18B7F83B983B1816083B98AEA8D
:1007900090E09093830080938200089580912E02D0
:1007A00090912F028130910561F08230910569F0BE
:1007B000892B91F483B18B7F83B983B1816083B935
:1007C0000EC083B1856083B90AC083B18E7F83B9BF
:1007D00083B1846083B903C083B1856083B980EA43
:1007E00090E090938300809382000895109283009C
:1007F0001092820008950F931F93CF93DF93CDB78C
:10080000DEB7A8970FB6F894DEBF0FBECDBF81E06C
:1008100090E0909361028093600290935F028093D6
:100820005E0290935D0280935C028EE190E0A0E016
:10083000B0E080930E0190930F01A0931001B0934C
:10084000110190936302809362021092470210920A
:1008500046021092500210925102109252021092CF
:100860005302ACC02091460230914702283E3340EB
:10087000F4F010924702109246020196A11DB11D9C
:100880008093500290935102A0935202B09353026E
:100890004EE151E060E070E080E090E05BDE4EE130
:1008A00051E060E070E081E090E054DE5DDF4CE11B
:1008B00051E060E070E080E090E04CDE80910E015D
:1008C00090910F01A0911001B0911101409150023F
:1008D000509151026091520270915302841B950B0A
:1008E000A60BB70BBF93AF939F938F938FE291E0CB
:1008F0009F938F938E010F5F1F4F1F930F930E9443
:10090000770EA80160E070E080E090E023DE4CE12B
:1009100051E060E070E081E090E01CDE80915D02DB
:100920008F9380915C028F9380915F028F9380916F
:100930005E028F93809161028F93809160028F930A
:1009400081E491E09F938F931F930F930E94770E02
:10095000A80160E070E081E090E0FCDD40910E01D4
:1009600050910F016091100170911101809150021E
:1009700090915102A0915202B09153020FB6F89497
:10098000DEBF0FBECDBF481759076A077B07B1F41A
:100990004EE151E060E070E080E090E0DBDD46E5B4
:1009A00051E060E070E080E090E0D4DD4EE151E0A5
:1009B00060E070E081E090E0CDDD18DF80915002D2
:1009C00090915102A0915202B091530240910E01B8
:1009D00050910F01609110017091110184179507DA
:1009E000A607B70708F43ECFA8960FB6F894DEBF67
:1009F0000FBECDBFDF91CF911F910F9108950F933F
:100A00001F93CF93DF93CDB7DEB7A8970FB6F894B7
:100A1000DEBF0FBECDBF81E090E090936102809376
:100A2000600282E090E090935F0280935E02909378
:100A30005D0280935C0282E390E0A0E0B0E08093EE
:100A40000E0190930F01A0931001B09311019093A8
:100A50006302809362021092450210924402109247
:100A60004C0210924D0210924E0210924F02ACC0F6
:100A70002091440230914502283E3340F4F0109218
:100A80004502109244020196A11DB11D80934C02B3
:100A900090934D02A0934E02B0934F024EE151E06D
:100AA00060E070E080E090E055DD4EE151E060E014
:100AB00070E081E090E04EDD64DE4CE151E060E00A
:100AC00070E080E090E046DD80910E0190910F0192
:100AD000A0911001B091110140914C0250914D0232
:100AE00060914E0270914F02841B950BA60BB70BC1
:100AF000BF93AF939F938F9387E691E09F938F93DC
:100B00008E010F5F1F4F1F930F930E94770EA80156
:100B100060E070E080E090E01DDD4CE151E060E0DD
:100B200070E081E090E016DD80915D028F9380910E
:100B30005C028F9380915F028F9380915E028F930E
:100B4000809161028F93809160028F9381E491E0A4
:100B50009F938F931F930F930E94770EA80160E0DD
:100B600070E081E090E0F6DC40910E0150910F01C1
:100B7000609110017091110180914C0290914D0291
:100B8000A0914E02B0914F020FB6F894DEBF0FBE97
:100B9000CDBF481759076A077B07B1F44EE151E012
:100BA00060E070E080E090E0D5DC46E551E060E098
:100BB00070E080E090E0CEDC4EE151E060E070E07B
:100BC00081E090E0C7DC12DE80914C0290914D02F2
:100BD000A0914E02B0914F0240910E0150910F0131
:100BE000609110017091110184179507A607B7074E
:100BF00008F43ECFA8960FB6F894DEBF0FBECDBF67
:100C0000DF91CF911F910F910895CF92DF92EF92D4
:100C1000FF920F931F93CF93DF93CDB7DEB7A897C3
:100C20000FB6F894DEBF0FBECDBF00913A0210910F
:100C30003B028091380290913902080F191FE09110
:100C40003602F09137020E0F1F1F6801CC0CDD1C1D
:100C5000CC0CDD1CC00ED11E10924802109249022D
:100C600010924A0210924B020D2C000CEE08FF0865
:100C7000C114D104E104F10409F469C58091420270
:100C800090914302883E9340F4F0109243021092F8
:100C9000420281E090E0A0E0B0E0809348029093AF
:100CA0004902A0934A02B0934B024EE151E060E04A
:100CB00070E080E090E04EDC4EE151E060E070E0FA
:100CC00081E090E047DC0B30110508F040C5F801E9
:100CD000EA5BFF4FE0C74EE151E060E070E080E08A
:100CE00090E038DC82E1E7E7F1E08E010F5F1F4F13
:100CF000D80101900D928A95E1F7A80160E070E0BB
:100D000080E090E027DC4EE151E060E070E081E0BF
:100D100090E020DC8091480290914902A0914A0223
:100D2000B0914B02A7019601281B390B4A0B5B0BB4
:100D3000DA01C901BF93AF939F932F9389E891E0A4
:100D40009F938F931F930F93D2D7A80160E070E019
:100D500081E090E0FFDB22DD809148029091490222
:100D6000A0914A02B0914B020FB6F894DEBF0FBEBD
:100D7000CDBFC816D906EA06FB06B1F44EE151E034
:100D800060E070E080E090E0E5DB46E551E060E0A7
:100D900070E080E090E0DEDB4EE151E060E070E08A
:100DA00081E090E0D7DB22DD8091480290914902FA
:100DB000A0914A02B0914B028C159D05AE05BF056E
:100DC00008F489CFC4C44EE151E060E070E080E0F7
:100DD00090E0C0DB82E1E7E7F1E08E010F5F1F4F9B
:100DE000D80101900D928A95E1F7A80160E070E0CA
:100DF00080E090E0AFDB4EE151E060E070E081E048
:100E000090E0A8DB8091480290914902A0914A02AB
:100E1000B0914B02A7019601281B390B4A0B5B0BC3
:100E2000DA01C901BF93AF939F932F9382E991E0B9
:100E30009F938F931F930F935AD7A80160E070E0A0
:100E400081E090E087DBAADC809148029091490222
:100E5000A0914A02B0914B020FB6F894DEBF0FBECC
:100E6000CDBFC816D906EA06FB06B1F44EE151E043
:100E700060E070E080E090E06DDB46E551E060E02E
:100E800070E080E090E066DB4EE151E060E070E011
:100E900081E090E05FDBAADC8091480290914902FA
:100EA000A0914A02B0914B028C159D05AE05BF057D
:100EB00008F489CF4CC44EE151E060E070E080E07E
:100EC00090E048DB82E1E7E7F1E08E010F5F1F4F22
:100ED000D80101900D928A95E1F7A80160E070E0D9
:100EE00080E090E037DB4EE151E060E070E081E0CF
:100EF00090E030DB8091480290914902A0914A0233
:100F0000B0914B02A7019601281B390B4A0B5B0BD2
:100F1000DA01C901BF93AF939F932F9389E891E0C2
:100F20009F938F931F930F93E2D6A80160E070E028
:100F300081E090E00FDB32DC809148029091490221
:100F4000A0914A02B0914B020FB6F894DEBF0FBEDB
:100F5000CDBFC816D906EA06FB06B1F44EE151E052
:100F600060E070E080E090E0F5DA46E551E060E0B6
:100F700070E080E090E0EEDA4EE151E060E070E099
:100F800081E090E0E7DA32DC8091480290914902FA
:100F9000A0914A02B0914B028C159D05AE05BF058C
:100FA00008F489CFD4C34EE151E060E070E080E006
:100FB00090E0D0DA82E1E7E7F1E08E010F5F1F4FAA
:100FC000D80101900D928A95E1F7A80160E070E0E8
:100FD00080E090E0BFDA4EE151E060E070E081E057
:100FE00090E0B8DA8091480290914902A0914A02BB
:100FF000B0914B02A7019601281B390B4A0B5B0BE2
:10100000DA01C901BF93AF939F932F9389E891E0D1
:101010009F938F931F930F936AD6A80160E070E0AF
:1010200081E090E097DABADB809148029091490222
:10103000A0914A02B0914B020FB6F894DEBF0FBEEA
:10104000CDBFC816D906EA06FB06B1F44EE151E061
:1010500060E070E080E090E07DDA46E551E060E03D
:1010600070E080E090E076DA4EE151E060E070E020
:1010700081E090E06FDABADB8091480290914902FA
:10108000A0914A02B0914B028C159D05AE05BF059B
:1010900008F489CFC816D906EA06FB0609F057C33B
:1010A000A5DB55C34EE151E060E070E080E090E0E8
:1010B00051DA82E1E7E7F1E08E010F5F1F4FD801BF
:1010C00001900D928A95E1F7A80160E070E080E060
:1010D00090E040DA4EE151E060E070E081E090E0C5
:1010E00039DA8091480290914902A0914A02B09168
:1010F0004B02A7019601281B390B4A0B5B0BDA0147
:10110000C901BF93AF939F932F9389E891E09F9379
:101110008F931F930F93EBD5A80160E070E081E0FF
:1011200090E018DA3BDB8091480290914902A0914F
:101130004A02B0914B020FB6F894DEBF0FBECDBF8E
:10114000C816D906EA06FB06B1F44EE151E060E0AC
:1011500070E080E090E0FED946E551E060E070E0AC
:1011600080E090E0F7D94EE151E060E070E081E08E
:1011700090E0F0D93BDB8091480290914902A09128
:101180004A02B0914B028C159D05AE05BF0508F4CF
:1011900089CFDDC24EE151E060E070E080E090E098
:1011A000D9D982E1E7E7F1E08E010F5F1F4FD80147
:1011B00001900D928A95E1F7A80160E070E080E06F
:1011C00090E0C8D94EE151E060E070E081E090E04D
:1011D000C1D98091480290914902A0914A02B091F0
:1011E0004B02A7019601281B390B4A0B5B0BDA0156
:1011F000C901BF93AF939F932F9389E891E09F9389
:101200008F931F930F9373D5A80160E070E081E086
:1012100090E0A0D9B6DA8091480290914902A0915D
:101220004A02B0914B020FB6F894DEBF0FBECDBF9D
:10123000C816D906EA06FB06B1F44EE151E060E0BB
:1012400070E080E090E086D946E551E060E070E033
:1012500080E090E07FD94EE151E060E070E081E015
:1012600090E078D9C3DA8091480290914902A09128
:101270004A02B0914B028C159D05AE05BF0508F4DE
:1012800089CF65C24EE151E060E070E080E090E01F
:1012900061D982E1E7E7F1E08E010F5F1F4FD801CE
:1012A00001900D928A95E1F7A80160E070E080E07E
:1012B00090E050D94EE151E060E070E081E090E0D4
:1012C00049D98091480290914902A0914A02B09177
:1012D0004B02A7019601281B390B4A0B5B0BDA0165
:1012E000C901BF93AF939F932F9389E891E09F9398
:1012F0008F931F930F93FBD4A80160E070E081E00F
:1013000090E028D93EDA8091480290914902A0915C
:101310004A02B0914B020FB6F894DEBF0FBECDBFAC
:10132000C816D906EA06FB06B1F44EE151E060E0CA
:1013300070E080E090E00ED946E551E060E070E0BA
:1013400080E090E007D94EE151E060E070E081E09C
:1013500090E000D94BDA8091480290914902A09127
:101360004A02B0914B028C159D05AE05BF0508F4ED
:1013700089CFEDC14EE151E060E070E080E090E0A7
:10138000E9D882E1E7E7F1E08E010F5F1F4FD80156
:1013900001900D928A95E1F7A80160E070E080E08D
:1013A00090E0D8D84EE151E060E070E081E090E05C
:1013B000D1D88091480290914902A0914A02B091FF
:1013C0004B02A7019601281B390B4A0B5B0BDA0174
:1013D000C901BF93AF939F932F9389E891E09F93A7
:1013E0008F931F930F9383D4A80160E070E081E096
:1013F00090E0B0D8C6D98091480290914902A0915E
:101400004A02B0914B020FB6F894DEBF0FBECDBFBB
:10141000C816D906EA06FB06B1F44EE151E060E0D9
:1014200070E080E090E096D846E551E060E070E042
:1014300080E090E08FD84EE151E060E070E081E024
:1014400090E088D8D3D98091480290914902A09128
:101450004A02B0914B028C159D05AE05BF0508F4FC
:1014600089CF75C14EE151E060E070E080E090E02E
:1014700071D882E1E7E7F1E08E010F5F1F4FD801DD
:1014800001900D928A95E1F7A80160E070E080E09C
:1014900090E060D84EE151E060E070E081E090E0E3
:1014A00059D88091480290914902A0914A02B09186
:1014B0004B02A7019601281B390B4A0B5B0BDA0183
:1014C000C901BF93AF939F932F9389E891E09F93B6
:1014D0008F931F930F930BD4A80160E070E081E01D
:1014E00090E038D84ED98091480290914902A0915D
:1014F0004A02B0914B020FB6F894DEBF0FBECDBFCB
:10150000C816D906EA06FB06B1F44EE151E060E0E8
:1015100070E080E090E01ED846E551E060E070E0C9
:1015200080E090E017D84EE151E060E070E081E0AB
:1015300090E010D85BD98091480290914902A09127
:101540004A02B0914B028C159D05AE05BF0508F40B
:1015500089CFFDC04EE151E060E070E080E090E0B6
:101560000E94AA0282E1E7E7F1E08E010F5F1F4FC0
:10157000D80101900D928A95E1F7A80160E070E032
:1015800080E090E00E94AA024EE151E060E070E04D
:1015900081E090E00E94AA02809148029091490265
:1015A000A0914A02B0914B02A7019601281B390B6A
:1015B0004A0B5B0BDA01C901BF93AF939F932F9343
:1015C00089E891E09F938F931F930F9390D3A80185
:1015D00060E070E081E090E00E94AA02D2D88091A1
:1015E000480290914902A0914A02B0914B020FB675
:1015F000F894DEBF0FBECDBFC816D906EA06FB06BB
:10160000C9F44EE151E060E070E080E090E00E94BB
:10161000AA0246E551E060E070E080E090E00E94C0
:10162000AA024EE151E060E070E081E090E00E94AB
:10163000AA02DCD88091480290914902A0914A0206
:10164000B0914B028C159D05AE05BF0508F482CF05
:101650007EC04EE151E060E070E080E090E00E94EA
:10166000AA0282E1E7E7F1E08E010F5F1F4FD80188
:1016700001900D928A95E1F7A80160E070E080E0AA
:1016800090E00E94AA024EE151E060E070E081E04B
:1016900090E00E94AA028091480290914902A09194
:1016A0004A02B0914B02A7019601281B390B4A0B45
:1016B0005B0BDA01C901BF93AF939F932F9389E826
:1016C00091E09F938F931F930F9311D3A80160E034
:1016D00070E081E090E00E94AA0253D88091480215
:1016E00090914902A0914A02B0914B020FB6F89432
:1016F000DEBF0FBECDBFC816D906EA06FB06C9F489
:101700004EE151E060E070E080E090E00E94AA02CB
:1017100046E551E060E070E080E090E00E94AA02BF
:101720004EE151E060E070E081E090E00E94AA02AA
:101730005DD88091480290914902A0914A02B091EF
:101740004B028C159D05AE05BF0508F482CFA89607
:101750000FB6F894DEBF0FBECDBFDF91CF911F91C2
:101760000F91FF90EF90DF90CF900895EF92FF924E
:101770000F931F93CF93DF93CDB7DEB7AC970FB620
:10178000F894DEBF0FBECDBFE12CF12C0E94A40067
:10179000892B41F1E114F10451F480913A029091C6
:1017A0003B02019690933B0280933A021BC081E07A
:1017B000E816F10451F480913802909139020196B3
:1017C00090933902809338020DC092E0E916F1043B
:1017D00049F4809136029091370201969093370236
:1017E000809336020E94D300892B09F460C0C701A0
:1017F000019663E070E03CD28C017C010130110560
:10180000E9F00230110581F10115110509F041C01F
:1018100080913B028F9380913A028F9389E991E006
:101820009F938F93CE0189969F938F9360D20F9051
:101830000F900F900F900F900F902BC08091390256
:101840008F93809138028F9389E991E09F938F93D2
:10185000CE0189969F938F934AD20F900F900F904D
:101860000F900F900F9015C0809137028F93809149
:1018700036028F9389E991E09F938F93CE018996E9
:101880009F938F9334D20F900F900F900F900F90E3
:101890000F900F5F1F4FB801660F771F600F711F0A
:1018A000AE01475D5F4F81E090E00E94AA020E9476
:1018B0007500892B11F0A9D97DC080913A029091D1
:1018C0003B029C01220F331F220F331F820F931FF5
:1018D000909335028093340220913802309139027E
:1018E000C901880F991F880F991F280F391F30933E
:1018F0003302209332022091360230913702C9011F
:10190000880F991F880F991F280F391F30933102B4
:1019100020933002109254021092550210925602F7
:10192000109257024EE151E060E070E080E090E0FC
:101930000E94AA0281E1ECE9F1E08E010F5F1F4FE6
:10194000D80101900D928A95E1F7A80160E070E05E
:1019500080E090E00E94AA024EE151E060E070E079
:1019600081E090E00E94AA02809137028F938091DB
:1019700036028F93809139028F93809138028F9332
:1019800080913B028F9380913A028F938DEA91E090
:101990009F938F931F930F93AAD1A80160E070E0EB
:1019A00081E090E00E94AA020FB6F894DEBF0FBE5D
:1019B000CDBFECCEAC960FB6F894DEBF0FBECDBF58
:1019C000DF91CF911F910F91FF90EF9008950E94AA
:1019D00097030E94B3020E94E8010E94710025D182
:1019E00037D10E946F0280E091E09093DB028093F8
:1019F000DA020E948D0378948091680290916902C6
:101A0000892B09F084C04CE151E060E070E080E097
:101A100090E00E94AA024CEB51E060E070E080E0B0
:101A200090E00E94AA024CE151E060E070E081E0A9
:101A300090E00E94AA024EEC51E060E070E081E08C
:101A400090E00E94AA020E947500892B71F14CE17E
:101A500051E060E070E080E090E00E94AA0240EE79
:101A600051E060E070E080E090E00E94AA024CE16A
:101A700051E060E070E081E090E00E94AA0242EF55
:101A800051E060E070E081E090E00E94AA0281E015
:101A900090E090936902809368029093670280932C
:101AA000660210926502109264020E94A400892BC3
:101AB00071F14CE151E060E070E080E090E00E9464
:101AC000AA0244E052E060E070E080E090E00E9412
:101AD000AA024CE151E060E070E081E090E00E94F9
:101AE000AA0247E152E060E070E081E090E00E94ED
:101AF000AA0281E090E090936902809368021092BC
:101B0000670210926602909365028093640280914E
:101B10006802909169020197F1F4809166029091B8
:101B200067020197C1F40E94A400892B41F081E073
:101B300090E090934102809340020E94FB030E9438
:101B4000D300892B41F081E090E090933F02809395
:101B50003E020E94FF048091680290916902019701
:101B600009F04ACF8091640290916502019709F0D3
:101B700043CF0E94A400892B09F43ECFF7DD3CCF70
:101B8000EAE6F2E08281815082838C3370F0128227
:101B900081818F5F81838C3340F0118280818F5FE0
:101BA0008083883110F010926A0208951F920F927C
:101BB0000FB60F9211240BB60F922F933F934F93B2
:101BC0005F938F93EF93FF938CB18D3011F08A3038
:101BD00079F4E0916D02F0916E02EC58FD4F1082A5
:101BE00010926E0210926D0281E080936F020FC01E
:101BF00020916D0230916E02A9014F5F5F4F5093AB
:101C00006E0240936D02F901EC58FD4F8083FF9105
:101C1000EF918F915F914F913F912F910F900BBE5C
:101C20000F900FBE0F901F901895109290008FECA0
:101C300089B98BB182608BB9E5E9F0E0808186607B
:101C4000808388E98AB908955D9BFECF8CB9089599
:101C5000EAE9F0E0808188698083EBE9F0E0808147
:101C600082608083109298008FEC80939900089591
:101C700097FB072E16F4009406D077FD08D023D0EA
:101C800007FC05D03EF4909581959F4F089570957F
:101C900061957F4F0895EE0FFF1F0024001C0BBEBF
:101CA0000790F691E02D0994A29FB001B39FC00167
:101CB000A39F700D811D1124911DB29F700D811D78
:101CC0001124911D0895AA1BBB1B51E107C0AA1F37
:101CD000BB1FA617B70710F0A61BB70B881F991FCD
:101CE0005A95A9F780959095BC01CD0108950F9361
:101CF0001F93CF93DF93CDB7DEB72E970FB6F8942F
:101D0000DEBF0FBECDBF0D891E8986E08C831A838E
:101D100009838FEF9FE79E838D83AE01475E5F4F00
:101D20006F89788DCE01019610D0EF81F885E00F94
:101D3000F11F10822E960FB6F894DEBF0FBECDBFF6
:101D4000DF91CF911F910F9108952F923F924F9263
:101D50005F926F927F928F929F92AF92BF92CF923B
:101D6000DF92EF92FF920F931F93CF93DF93CDB744
:101D7000DEB72B970FB6F894DEBF0FBECDBF6C0158
:101D80007B018A01FC0117821682838181FFBFC11A
:101D9000CE0101963C01F6019381F70193FD8591F7
:101DA00093FF81917F01882309F4ADC1853239F415
:101DB00093FD859193FF81917F01853221F4B601D6
:101DC00090E0D6D1E8CF912C212C312CFFE1F315F6
:101DD000D8F08B3279F038F4803279F08332A1F484
:101DE000232D20611DC08D3261F0803369F4232DD5
:101DF000216016C0832D8260382EE32DE4603E2ED4
:101E00002AC0F32DF8601DC037FC2DC020ED280F2F
:101E10002A3040F08E32B9F436FC75C1232D20648F
:101E2000322E19C036FE06C08AE0989E200D11247D
:101E3000922E11C0EAE02E9E200D1124222EF32DA9
:101E4000F0623F2E08C08C3621F4832D8068382E36
:101E500002C0883641F4F70193FD859193FF81918B
:101E60007F018111B3CF982F9F7D9554933028F433
:101E70000C5F1F4F9FE399830DC0833631F083378A
:101E800071F0833509F055C020C0F8018081898345
:101E90000E5F1F4F88248394912C530112C0280198
:101EA000F2E04F0E511CF801A080B18036FE03C055
:101EB000692D70E002C06FEF7FEFC5014ED14C017C
:101EC0008201F32DFF773F2E15C0280122E0420E3C
:101ED000511CF801A080B18036FE03C0692D70E06E
:101EE00002C06FEF7FEFC5012DD14C01F32DF068DB
:101EF0003F2E820133FC19C0822D90E0881699068E
:101F0000A0F4B60180E290E033D12A94F5CFF50138
:101F100037FC859137FE81915F01B60190E028D1B1
:101F200021102A9421E0821A91088114910479F7F2
:101F3000E1C0843611F0893639F5F80137FE07C063
:101F400060817181828193810C5F1F4F08C0608125
:101F50007181072E000C880B990B0E5F1F4FF32D1C
:101F6000FF763F2E97FF09C09095809570956195FB
:101F70007F4F8F4F9F4FF0683F2E2AE030E0A30144
:101F800033D1882E861844C0853731F4232D2F7E17
:101F9000B22E2AE030E025C0932D997FB92E8F36DE
:101FA000C1F018F4883579F0AEC0803719F0883761
:101FB00021F0A9C0E92FE061BE2EB4FE0DC0FB2DBB
:101FC000F460BF2E09C034FE0AC0292F2660B22E4D
:101FD00006C028E030E005C020E130E002C020E18A
:101FE00032E0F801B7FE07C0608171818281938180
:101FF0000C5F1F4F06C06081718180E090E00E5F32
:102000001F4FA301F1D0882E8618FB2DFF773F2E9E
:1020100036FE0DC0232D2E7FA22E891458F434FED7
:102020000BC032FC09C0832D8E7EA82E05C0B82CB3
:10203000A32C03C0B82C01C0B92CA4FE0FC0FE0114
:10204000E80DF11D8081803321F49A2D997EA92E0F
:1020500009C0A2FE06C0B394B39404C08A2D86784A
:1020600009F0B394A3FC10C0A0FE06C0B21480F423
:10207000280C922C9B180DC0B21458F4B60180E2C3
:1020800090E076D0B394F8CFB21418F42B1802C0B5
:10209000982C212CA4FE0FC0B60180E390E068D0FC
:1020A000A2FE16C0A1FC03C088E790E002C088E54C
:1020B00090E0B6010CC08A2D867851F0A1FE02C0D6
:1020C0008BE201C080E2A7FC8DE2B60190E050D027
:1020D000891430F4B60180E390E04AD09A94F8CFA6
:1020E0008A94F301E80DF11D8081B60190E040D0A3
:1020F0008110F6CF222009F44ECEB60180E290E0A6
:1021000037D02A94F7CFF6018681978102C08FEFEE
:102110009FEF2B960FB6F894DEBF0FBECDBFDF91B9
:10212000CF911F910F91FF90EF90DF90CF90BF90D4
:10213000AF909F908F907F906F905F904F903F9067
:102140002F900895FC010590615070400110D8F760
:10215000809590958E0F9F1F0895FC0161507040EF
:1021600001900110D8F7809590958E0F9F1F0895CC
:102170000F931F93CF93DF93FB01238121FD03C0B6
:102180008FEF9FEF2CC022FF16C04681578124811C
:1021900035814217530744F4A081B1819D012F5F1F
:1021A0003F4F318320838C93268137812F5F3F4FB0
:1021B0003783268314C08B01EC01FB010084F18579
:1021C000E02D0995892BE1F6D80116968D919C9109
:1021D0001797019617969C938E931697CE01DF91D1
:1021E000CF911F910F910895FA01AA27283051F13C
:1021F000203181F1E8946F936E7F6E5F7F4F8F4F38
:102200009F4FAF4FB1E03ED0B4E03CD0670F781F96
:10221000891F9A1FA11D680F791F8A1F911DA11D7B
:102220006A0F711D811D911DA11D20D009F46894B4
:102230003F912AE0269F11243019305D3193DEF65C
:10224000CF010895462F4770405D4193B3E00FD012
:10225000C9F7F6CF462F4F70405D4A3318F0495DFD
:1022600031FD4052419302D0A9F7EACFB4E0A695E0
:102270009795879577956795BA95C9F70097610502
:10228000710508959B01AC010A2E06945795479558
:1022900037952795BA95C9F7620F731F841F951F4D
:0822A000A01D0895F894FFCF82
:1022A8000000000200000000240E000000000100F1
:1022B8000000C0F9A4B0999282D8809820202020EC
:1022C8002020202020202020202020202020005BEB
:1022D800464153545D74696D65203A202564207326
:1022E80000773A2025642C52203A20256420442087
:1022F8003A2025642000202020202020656E6420BC
:10230800202020202020005B636F6D6D6F6E5D7450
:10231800696D653A256400203D3D6D6F64652073E5
:10232800746172743D3D20200074696D65203D25FF
:10233800640074696D65203D202564005B63686FE7
:102348006F73655D627420636F756E7400573A250C
:102358006420523A256420443A2564003D3D2020FB
:102368004D4F444520534554203D3D202000203109
:102378002E4155544F20322E4D414E55414C200090
:102388003D3D20204155544F20534554203D3D208C
:10239800200020312E4641535420322E636F6D6D3C
:1023A8006F6E20003D3D204D414E55414C20534518
:1023B80054203D3D2020002063686F6F7365203DE9
:0A23C8003D3E206274322020000028
:00000001FF
